:020000040800F2
:1000000028040020810D0008750A0008770A0008FE
:10001000790A00087B0A00087D0A00080000000039
:100020000000000000000000000000007F0A00083F
:10003000810A000800000000830A0008850A000801
:100040009D0D0008A10D0008A50D0008A90D0008D0
:10005000AD0D0008B10D0008890A0008F70A000874
:10006000B50D0008B90D0008BD0D0008C10D000850
:10007000C50D0008C90D0008CD0D0008D10D000800
:10008000D50D0008D90D0008DD0D000800000000A6
:10009000000000000000000000000000E10D00086A
:1000A000E50D00089D0B0008E90D0008ED0D0008A6
:1000B000F10D0008F50D0008F90D0008FD0D000810
:1000C000010E0008050E0008090E00080D0E0008BC
:1000D000110E0008150E0008190E00081D0E00086C
:1000E000210E0008250E0008290E0008000000005F
:1000F0000000000000000000000000000000000000
:1001000000000000000000000000000000000000EF
:1001100000000000000000002D0E0008310E000855
:1001200001B400996A4A6B481368B3FBF0F041438D
:10013000009102E00098401E009000980028F9D13C
:1001400001B0704710B5644C216841F480612160B2
:100150000120FFF7E5FF216821F48061216010BDD7
:1001600002065D4904D50B6843F400730B6003E09D
:100170000A6822F400720A60420604D50B6843F450
:1001800080730B6003E00A6822F480720A608206C2
:1001900004D50B6843F080030B6003E00A6822F08B
:1001A00080020A60C00600D526E02AE002074A491C
:1001B00004D50B6843F400730B6003E00A6822F473
:1001C00000720A60420704D50B6843F480730B6029
:1001D00003E00A6822F480720A60820704D50B6883
:1001E00043F080030B6003E00A6822F080020A609B
:1001F000C00700D500E004E00A6842F040020A604F
:100200007047086820F040000860704710B5044649
:10021000FFF7A6FFFFF796FF2046FFF7C7FFFFF7A0
:1002200091FFBDE8104005207AE780B500F00CF89A
:10023000012003E080B500F007F80220FFF7E6FF99
:10024000BDE80240C8206BE72348016821F48051D3
:100250000160704720490A6822F480523C280A60F5
:1002600002D03E2802D07047102000E01420CDE7D5
:10027000194A1368401E23F480530428136013D8CE
:10028000DFE800F00306090C0F0041F080000AE0EF
:1002900041F0C00007E041F0900004E041F0D000E0
:1002A00001E041F04000B1E770470B490A6822F4D1
:1002B00080520A60AAE780B507490A6842F4805272
:1002C0000A60FFF7A3FFBDE80240012028E7000015
:1002D0001400002040420F000C0C014038B50546C8
:1002E00002E0FFF7E8FF6D1C2878A0B10A2804D1CE
:1002F00000210220FFF7BCFFF5E70D2802D1FFF730
:1003000099FFF0E70928ECD104243E20FFF7A2FF73
:10031000641EFAD1E7E731BD38B50446C906090EB7
:100320000520FFF7A5FF0025E8B26D1C205CFFF754
:10033000C2FFE8B20828F7D3BDE83440002101200D
:1003400096E780B53020FFF761FF4FF4C870FFF7E4
:10035000E7FE3020FFF75AFF4FF4C870FFF7E0FECA
:10036000FFF772FF2820FFF7FBFEFFF7EBFE0520EB
:10037000FFF7D6FEFFF7E6FE0520FFF7D1FE2820A7
:10038000FFF714FFFFF7DEFE0520FFF7C9FE0C2084
:10039000FFF78BFF0620FFF788FFFFF746FFBDE85A
:1003A000014047E718B585B000F028F900F080F863
:1003B0006846102100F02EF97C487D4C016841F020
:1003C00020010160026802F0200204920499026890
:1003D00042F004020260036803F0040304930499EA
:1003E000026842F0080202600022006800F0080083
:1003F00004904FF4FE510498204600F0D0F90320F9
:100400006C49009001910122029269466A4800F00D
:1004100005F94FF4FE510091012200210291019251
:1004200003926946204600F0F9F8002200210620D8
:1004300000F0FAF9062000F014FA0022002107204B
:1004400000F0F2F9072000F00CFA00F062F8FFF774
:1004500078FFFFF7EAFE06215848FFF75DFF00210D
:100460000120FFF705FF00BF5DA0FFF737FF002168
:100470000220FFF7FDFE00BF5BA0FFF72FFF00216A
:100480000320FFF7F5FE00BF59A0FFF727FF0F215C
:100490000420FFF7EDFE0620FFF70DFF4848C16876
:1004A00041F00101C160026842F001020260FEE712
:1004B00010B54448016821F0F80141F08001016065
:1004C000026842F00102026001688907FCD54268B7
:1004D00022F0F0024260416821F4E061416041682D
:1004E00021F4605141604168890889004160416898
:1004F00011F00C0FFBD1344C204600F0DDF93348ED
:10050000016841F0040101602046BDE8104000F0A0
:10051000DFB910B586B001A8142100F07BF823489C
:100520002B49046844F40064046000230068244CF0
:1005300000F40060009000980A682648264A03707C
:100540004FF00071116041F63F73002102914FF4AA
:100550007A7204918DF81410ADF80430039201A959
:10056000204600F0BDF9206820F080002060A168DE
:100570001A480140A160A16821F07001A160A06843
:10058000C008C000A060E06820F04000E060E068C3
:1005900020F48040E060606820F070006060A06837
:1005A00020F08000A06006B010BD000018100240CE
:1005B000000C014000002110000801400000002054
:1005C000002C01400010024000127A0010E000E010
:1005D0000CED00E019E400E000E100E0F8BFFFFFEF
:1005E0004D6F726F7A6F76005379726F74756B000E
:1005F0005572616B616E4F464600000080B5032066
:1006000000F005F9002000F0B9F900F0D7F900205A
:1006100002BD0000002200F0F3B900002DE9F8430C
:10062000024600200025644BDFF8909101270E68F8
:10063000AF403E40BE4240F0AC804C686CB3012CF1
:1006400020D0022C23D0032C32D0112C1CD0122C01
:1006500020D0DFF86CE174451CBFDFF868E1744519
:100660001BD0DFF864E174451CBFDFF860E174451E
:1006700013D0DFF85CE174451CBFDFF858E1744526
:100680000BD016E0C86814E0C868001D11E0C86807
:1006900008300EE0C8680C300BE0886808B9042008
:1006A00007E0012819BF082057610820176100E002
:1006B0000020B6F5807F03D294464FEA850E05E010
:1006C000A5F1080402F1040C4FEA840E0F27DCF8B0
:1006D000008007FA0EF428EA040400FA0EFE4EEA3F
:1006E0000404CCF800404C68E40052D5D9F800402E
:1006F000DFF8E4E044F00104C9F800404FEA950C4B
:10070000D9F8004004F0010400944FEA8508009CE9
:100710005EF82C4008F00C0807FA08F724EA0707EF
:100720002E4CA24208BF00240ED02D4CA24208BF7E
:10073000012409D02B4CA24208BF022404D02A4C29
:10074000A2420CBF0324042404FA08F427434EF801
:100750002C70F7434C68E4031C684CBF34433C40A6
:100760001C604C68A4035C684CBF34433C405C6034
:100770004C68E4029C684CBF34433C409C604C682D
:10078000A40203D5DF683E43DE6002E0DE68374046
:10079000DF606D1C0F2D7FF649AFBDE8F18302B914
:1007A000090401617047114A136803421CBF1060BD
:1007B00000F01EB87047000000040140181002400D
:1007C0000000111000001210000021100000221083
:1007D0000000311000003210080001400008014004
:1007E000000C0140001001400014014014040140BD
:1007F000704700000901020006D5294A00F00F00E9
:10080000104400F8041C7047264B19547047264BBF
:1008100019684FF6FF020002114000F4E06008433F
:10082000224908431860704738B51F4B1C68C4F351
:100830000223C3F10704052C28BF04241D1D072D26
:1008400034BF0023DB1E012505FA04F4641E214099
:10085000994005FA03F35B1E1A401143BDE834408A
:10086000C8E7012200F01F01114BFFE78A40400951
:1008700043F82020704710B5401EB0F1807F01D3AF
:10088000012010BD0B4C60600F214FF0FF30FFF7CF
:10089000B1FF0021A16007202060002010BD0000F2
:1008A00018ED00E000E400E00CED00E00000FA05C7
:1008B00000E100E010E000E04FF47A720649B0FB7E
:1008C000F2F0401E486000238B60052008607047EE
:1008D000024908607047000010E000E014000020AA
:1008E000F0B5DFF880E00368DFF88C40DFF8845073
:1008F000DFF87C60DFF87470DFF86CC0704518BFFB
:10090000B0F1804F03D0604518BFB84209D14A68A2
:1009100023F07003134370451CBFB0F1804F604556
:1009200007D0B84218BFB04203D0A84218BFA042B7
:1009300003D1CA6823F440731343036070458A6887
:10094000C26218BFB0420A88826203D0A84218BFB0
:10095000A04201D1097C0163416941F0010141617B
:100960000120F0BD002C01400004004000080040C0
:1009700000400140004401400048014038B50D4DA1
:100980000D4B2A7804464FF47A711868B1FBF2F2E5
:10099000B0FBF2F0FFF76FFF50B9102C08D2002225
:1009A00021464FF0FF30FFF73FFFAC60002032BD23
:1009B000012032BD08000020140000200E4881B044
:1009C000016841F001010160026802F00102009239
:1009D0000099426842F080524260406800F08050C6
:1009E000009000980548016821F0E06141F0007135
:1009F000016001B0704700BF1810024004000140C0
:100A000000B500BF130096469446103928BFA0E8F1
:100A10000C50FAD85FEA417C28BF0CC048BF40F8B0
:100A2000042BC90728BF20F8022B48BF00F8012B70
:100A300000BD000009281CD8DFE800F005080A0CFA
:100A40000E101214161800BF7CA010E07CA00EE05F
:100A50007CA00CE07CA00AE07CA008E07CA006E082
:100A60007CA004E07CA002E07CA000E07CA0FFF77A
:100A700035BC70477047FEE7FEE7FEE7FEE77047CC
:100A80007047704700F0F0B82DE9F04100F076F8BB
:100A900000F02EF800F07DF8092100F029F800F0B0
:100AA00073F80A2100F024F800F064F80B2100F03C
:100AB0001FF800F05BF80C2100F01AF800F052F873
:100AC0000D2100F015F800F056F80E2100F010F896
:100AD00000F041F80F2100F00BF800F005F8BDE838
:100AE000F0410120FFF75FBE06FB14552846A1E741
:100AF0000120FFF7BDBB2DE9F04100F03FF800F009
:100B00002EF800F046F8092100F029F800F03CF832
:100B10000A2100F024F800F02DF80B2100F01FF856
:100B200000F024F80C2100F01AF800F01BF80D2159
:100B300000F015F800F01FF80E2100F010F800F09A
:100B40000AF80F2100F00BF8FFF7CEFFBDE8F041E7
:100B50000220FFF728BE95FBF6F420466AE7022044
:100B6000FFF786BB06FB1844204663E794FBF6F8C4
:100B700040465FE73BA73846FFF7B0BB2A48876887
:100B800044680568082170470A2606FB187738462E
:100B900050E70A2197FBF1F840464BE770B5234B2D
:100BA000DFF884402FA66FF001021A6000210420B4
:100BB000FFF75EFBA0680A2190FBF1F0FFF73AFF18
:100BC000A0680A210A2500F033F83046FFF786FBBB
:100BD000606890FBF5F0FFF72DFF60680A2100F0D8
:100BE00027F83046FFF77AFB206890FBF5F0FFF717
:100BF00021FF20680A2190FBF1F105FB1105FFF7A9
:100C000075FF20686268A168401C3C28A2BF0020D4
:100C1000521C3C2A04DB0022491C1829A8BF0021D1
:100C200020606260A16070BD18000020102C01409F
:100C300090FBF1F105FB1100FCE600003000000024
:100C400031000000320000003300000034000000DA
:100C500035000000360000003700000038000000BA
:100C6000390000003A00000002494A6808788218FA
:100C70004A6070470800002010B50F4A0F491068FD
:100C800040F00100106053680D480B405360146839
:100C900004401460116821F4802111604FF41F0199
:100CA000506820F4FE00506091600020D0624FF048
:100CB0000061044A116010BD001002400000FFF8FE
:100CC000FFFFF6FE08ED00E030B5016884684218C9
:100CD000416802EB5103C9070BD54C4409E012F9F6
:100CE000011B12F8015B002904F8015B05D5491CC2
:100CF000F9D19A42F3D10C3030BD491EF1D5F8E755
:100D000010B5074979441831064C7C44163404E088
:100D10000A68081D114488470146A142F8D110BD58
:100D20000800000014000000A1FFFFFF0801000000
:100D30002C0000000000002000F00DF8002801D079
:100D4000FFF7DEFFAFF300800020AFF30080FFF776
:100D500029FB00F002F80120704700F001B8000004
:100D60000746384600F002F8FBE7000080B5AFF315
:100D70000080024A11001820ABBEFBE726000200EB
:100D80000148804701480047790C0008910D000890
:100D9000AFF30080AFF30080FFF7CEFFFFF7FEBF99
:100DA000FFF7FEBFFFF7FEBFFFF7FEBFFFF7FEBF77
:100DB000FFF7FEBFFFF7FEBFFFF7FEBFFFF7FEBF67
:100DC000FFF7FEBFFFF7FEBFFFF7FEBFFFF7FEBF57
:100DD000FFF7FEBFFFF7FEBFFFF7FEBFFFF7FEBF47
:100DE000FFF7FEBFFFF7FEBFFFF7FEBFFFF7FEBF37
:100DF000FFF7FEBFFFF7FEBFFFF7FEBFFFF7FEBF27
:100E0000FFF7FEBFFFF7FEBFFFF7FEBFFFF7FEBF16
:100E1000FFF7FEBFFFF7FEBFFFF7FEBFFFF7FEBF06
:100E2000FFF7FEBFFFF7FEBFFFF7FEBFFFF7FEBFF6
:100E3000FFF7FEBF080E0E041F041A010001F9009F
:0A0E40000010FC0002366E01F40001
:0400000508000D9151
:00000001FF
