:020000040800F2
:10000000680400200D1300089D0F00089F0F0008D2
:10001000A10F0008A30F0008A50F000800000000B2
:10002000000000000000000000000000A70F000812
:10003000A90F000800000000AB0F0008AD0F00087A
:10004000291300082D13000831130008B10F000810
:100050003513000839130008D90F0008DF0F000816
:100060003D13000841130008451300084913000818
:100070004D130008511300085513000859130008C8
:100080005D130008611300086513000800000000FC
:1000900000000000000000000000000069130008DC
:1000A0006D13000871130008751300087913000818
:1000B0007D130008811300088513000889130008C8
:1000C0008D13000891130008951300089913000878
:1000D0009D130008A1130008A5130008A913000828
:1000E000AD130008B1130008B513000800000000AC
:1000F0000000000000000000000000000000000000
:1001000000000000000000000000000000000000EF
:100110000000000000000000E50F000819110008B1
:10012000012200F01F01C04B8A40400943F8202003
:1001300070470901020006D5BC4A00F00F001044C8
:1001400000F8041C7047BA4B1954704700F00700C0
:1001500010B5C0F10703052B28BF0423041D072C8D
:1001600034BF0020C01E012404FA03F35B1E1940B3
:10017000814004FA00F0401E1040084310BDAD4914
:1001800081B00A6802430A6009680840009000983C
:1001900001B0704730B585B000F07EF900F0F5F899
:1001A0006846102100F084F9A34CA44D206840F06B
:1001B00020002060216801F020010491049821684A
:1001C00041F004012160226802F0040204920498C4
:1001D000216841F0080121604FF4FE51226802F0CD
:1001E0000802049200220498284600F02CFA03200A
:1001F000934900900191002202926946914800F0D3
:100200005BF94FF4FE51009101220192002102910D
:10021000022203926946284600F04EF9002200218E
:10022000062000F055FA062000F06FFA00220021A7
:10023000072000F04DFA072000F067FA92A0824DE7
:10024000D0E90023CDE900238048016841F48071A2
:1002500001604FF00060FFF792FFA06840F400409B
:10026000A06000227A4C206800F08BF80146032041
:10027000FFF75FFF0320FFF753FF4FF0FF300090C1
:100280006946284600F06CFAA9684FF6FF700143F2
:10029000A9601421EA681043E860684600F008F994
:1002A0001020FFF76CFF2068002200F06AF801467A
:1002B0003620FFF73EFF3620FFF732FF6420002193
:1002C000ADF80000019102906946624C204600F0B2
:1002D000EDFA206820F080002060616821F0700154
:1002E0006160A0686AA120F08000A060D1E90023CD
:1002F000594C5A482060CDE900234FF47A7041F6FA
:100300003F710022E0606160A260A261204600F0BF
:100310001BFB0021009101912046694600F022FC60
:1003200000F057FD00F0C9FC062104F1400000F088
:100330003BFD0021002000F0E3FC00BF4BA4204661
:1003400000F014FD0021012000F0DAFC204600F04E
:100350000DFD0021022000F0D3FC00BF45A000F0FD
:1003600005FD0021032000F0CBFC00BF43A000F0FE
:10037000FDFC0921032000F0C3FC062000F0E3FC93
:10038000FEE70021C0F30220E0E610B53448016822
:1003900021F0F80141F080010160026842F00102A1
:1003A000026001688907FCD5426A42F0010242629C
:1003B000416A8907FCD525490A6842F480720A60BF
:1003C000016A41F480310162016A21F480310162E5
:1003D000016A21F4407141F400710162016A41F443
:1003E00000410162416821F0F0014160416821F45F
:1003F000E0614160416821F46051416041688908D1
:1004000089004160416811F00C0FFBD1154C20466A
:1004100000F010FD1448016841F00401016020461D
:10042000BDE8104000F012BD00E100E018ED00E072
:1004300000E400E01C10024018100240000C0140D3
:10044000000011100008014000280040007000402A
:100450000CED00E0001000400000002000140040FF
:100460000010024000127A0010E000E03F3F3F3FE2
:100470003F3F00003F3F3F3F3F3F3F003F3F3F3F49
:100480003F3F3F3F00000000000000000000000070
:10049000000000000000000080B5032000F00BF910
:1004A000002000F0DBFC00F0F9FC002002BD0000A1
:1004B000002200F033BD00002DE9F8430246002081
:1004C0000025674BDFF89C9101270E68AF403E4046
:1004D000BE4240F0AC804C686CB3012C20D0022CA2
:1004E00023D0032C32D0112C1CD0122C20D0DFF8BA
:1004F00078E174451CBFDFF874E174451BD0DFF868
:1005000070E174451CBFDFF86CE1744513D0DFF86F
:1005100068E174451CBFDFF864E174450BD016E058
:10052000C86814E0C868001D11E0C86808300EE013
:10053000C8680C300BE0886808B9042007E001287F
:1005400019BF082057610820176100E00020B6F5A8
:10055000807F03D294464FEA850E05E0A5F108049A
:1005600002F1040C4FEA840E0F27DCF8008007FA32
:100570000EF428EA040400FA0EFE4EEA0404CCF855
:1005800000404C68E40052D5D9F80040DFF8F0E0B4
:1005900044F00104C9F800404FEA950CD9F8004036
:1005A00004F0010400944FEA8508009C5EF82C409A
:1005B00008F00C0807FA08F724EA0707314CA242B2
:1005C00008BF00240ED0304CA24208BF012409D03D
:1005D0002E4CA24208BF022404D02D4CA2420CBFD4
:1005E0000324042404FA08F427434EF82C70F7433C
:1005F0004C68E4031C684CBF34433C401C604C68AE
:10060000A4035C684CBF34433C405C604C68E4022B
:100610009C684CBF34433C409C604C68A40203D5AA
:10062000DF683E43DE6002E0DE683740DF606D1C5D
:100630000F2D7FF649AFBDE8F1838068084018BFF1
:100640000120C0B2704702B9090401617047114A24
:10065000136803421CBF106000F01EB87047000012
:100660000004014018100240000011100000121098
:100670000000211000002210000031100000321094
:100680000800014000080140000C0140001001403A
:1006900000140140140401407047000009010200E9
:1006A00006D5294A00F00F00104400F8041C7047DA
:1006B000264B19547047264B19684FF6FF0200026B
:1006C000114000F4E0600843224908431860704775
:1006D00038B51F4B1C68C4F30223C3F10704052C73
:1006E00028BF04241D1D072D34BF0023DB1E012558
:1006F00005FA04F4641E2140994005FA03F35B1ED9
:100700001A401143BDE83440C8E7012200F01F0140
:10071000114BFFE78A40400943F82020704710B58D
:10072000401EB0F1807F01D3012010BD0B4C6060F2
:100730000F214FF0FF30FFF7B1FF0021A16007202C
:100740002060002010BD000018ED00E000E400E093
:100750000CED00E00000FA0500E100E010E000E030
:1007600070B504460D4600F078F8002668B32046C0
:1007700000F02DF848B360684A4920F0020060603C
:10078000606820F0040060606068400840006060BD
:10079000686818B1486840084000486001260A6847
:1007A000686822F4607202430A602868A168090937
:1007B000090141EA1041A16080B2E168090C40EAF8
:1007C0000140E060204600F025F8304670BD81B061
:1007D00003464FF47A70009001205A68520902F0E3
:1007E00001020DE030490968CA0302D50099491E8B
:1007F00000915A680099520902F0010201B90020E3
:10080000009909B1002AEDD0596841F010015960F2
:1008100001B0704781B003464FF47A700090012018
:10082000596821F0100159605A68520902F001021A
:100830000DE01D490968CA0302D50099491E0091BF
:100840005A680099520902F0010201B9002000998A
:1008500009B1002AEDD001B0704781B003464FF4D2
:100860007A7000900120596821F0080159605A6897
:10087000D20802F001020DE00B490968CA0302D553
:100880000099491E00915A680099D20802F00102AD
:1008900001B900200099002918BF002AECD101B04D
:1008A000704700002C6C004010E000E0F0B5DFF86D
:1008B00080E00368DFF88C40DFF88450DFF87C606C
:1008C000DFF87470DFF86CC0704518BFB0F1804F6E
:1008D00003D0604518BFB84209D14A6823F07003BD
:1008E000134370451CBFB0F1804F604507D0B8423C
:1008F00018BFB04203D0A84218BFA04203D1CA68B3
:1009000023F440731343036070458A68C26218BFC2
:10091000B0420A88826203D0A84218BFA04201D127
:10092000097C0163416941F0010141610120F0BD91
:10093000002C01400004004000080040004001403D
:10094000004401400048014038B5040001D10120B5
:1009500032BD00F014F818B900F00DF800F0BBFA41
:10096000FFE702206870211D206800F0B0F8012028
:100970006870002032BD002129702046704704F1C4
:100980003C056878704710B50446206801698A07FD
:1009900015D5C1688A0712D56FF0020101610122E5
:1009A0002277806910F0030F204602D000F0CFFAC2
:1009B00003E000F0CDFA00F087F8002020772068EF
:1009C00001694A0715D5C1684A0712D56FF00401BD
:1009D000016102222277806910F4407F204602D014
:1009E00000F0B5FA03E000F0B3FA00F06DF8002073
:1009F0002077206801690A0715D5C1680A0712D552
:100A00006FF00801016104222277C06910F0030F22
:100A1000204602D000F09BFA03E000F099FA00F0C3
:100A200053F80020207720680169CA0615D5C168EF
:100A3000CA0612D56FF01001016108222277C06941
:100A400010F4407F204602D000F081FA03E000F06D
:100A50007FFA00F039F80020207720680169CA0782
:100A600008D5C168CA0705D56FF0010101612046AC
:100A700000F06FFA206801690A0608D5C1680A0605
:100A800005D56FF080010161204600F063FA20680F
:100A900001694A0608D5C1684A0605D56FF04001CC
:100AA0000161204600F057FA206801698A060AD5DC
:100AB000C1688A0607D56FF0200101612046BDE8B4
:100AC000104000F049BA10BD204600F046BAF0B51B
:100AD000DFF878E003681E4C1E4D1F4E1F4FDFF8F5
:100AE00080C0704518BFB0F1804F03D0604518BF7B
:100AF000B84209D14A6823F07003134370451CBF04
:100B0000B0F1804F604507D0B84218BFB04203D063
:100B1000A84218BFA04203D1CA6823F4407313430C
:100B20004A6923F080031343036070458B68C362F6
:100B300018BFB0420A68826203D0A84218BFA04220
:100B400001D10969016301224261F0BD002C01401D
:100B500000480140004401400040014000080040BE
:100B60000004004030B500F13C031A78012A01D19D
:100B7000022030BD01221A7002245C7002685468A1
:100B800024F070045460046865680A681543656061
:100B90000268946824F0800494600268946848684D
:100BA00004439460012159700020187030BD00008A
:100BB00001B400996A4A6B481368B3FBF0F04143F3
:100BC000009102E00098401E009000980028F9D1A2
:100BD00001B0704710B5644C216841F002012160FA
:100BE0000120FFF7E5FF216821F00201216010BD1F
:100BF00002065D4904D50B6843F080030B6003E0F7
:100C00000A6822F080020A60420604D50B6843F0AD
:100C100040030B6003E00A6822F040020A6082068B
:100C200004D50B6843F020030B6003E00A6822F050
:100C300020020A60C00600D526E02AE002074A49E1
:100C400004D50B6843F080030B6003E00A6822F0D0
:100C500080020A60420704D50B6843F040030B6032
:100C600003E00A6822F040020A60820704D50B689C
:100C700043F020030B6003E00A6822F020020A60C0
:100C8000C00700D500E004E00A6842F010020A60E4
:100C90007047086820F010000860704710B50446DF
:100CA000FFF7A6FFFFF796FF2046FFF7C7FFFFF706
:100CB00091FFBDE8104005207AE780B500F00CF800
:100CC000012003E080B500F007F80220FFF7E6FFFF
:100CD000BDE80240C8206BE7234801684908490085
:100CE0000160704720490A68520852003C280A6097
:100CF00002D03E2802D07047102000E01420CDE73B
:100D0000194A13685B08401E5B000428136013D85F
:100D1000DFE800F00306090C0F0041F080000AE054
:100D200041F0C00007E041F0900004E041F0D00045
:100D300001E041F04000B1E770470B490A685208F2
:100D400052000A60AAE780B507490A6842F001022A
:100D50000A60FFF7A3FFBDE80240012028E700007A
:100D60006000002040420F000C10014038B50546DD
:100D700002E0FFF7E8FF6D1C2878A0B10A2804D133
:100D800000210220FFF7BCFFF5E70D2802D1FFF795
:100D900099FFF0E70928ECD104243E20FFF7A2FFD9
:100DA000641EFAD1E7E731BD38B50446C906090E1D
:100DB0000520FFF7A5FF0025E8B26D1C205CFFF7BA
:100DC000C2FFE8B20828F7D3BDE834400021012073
:100DD00096E780B53020FFF761FF4FF4C870FFF74A
:100DE000E7FE3020FFF75AFF4FF4C870FFF7E0FE30
:100DF000FFF772FF2820FFF7FBFEFFF7EBFE052051
:100E0000FFF7D6FEFFF7E6FE0520FFF7D1FE28200C
:100E1000FFF714FFFFF7DEFE0520FFF7C9FE0C20E9
:100E2000FFF78BFF0620FFF788FFFFF746FFBDE8BF
:100E3000014047E74FF47A720649B0FBF2F0401EDA
:100E4000486000238B6005200860704702490860F5
:100E50007047000010E000E06000002038B50D4D44
:100E60000D4B2A7804464FF47A711868B1FBF2F200
:100E7000B0FBF2F0FFF753FC50B9102C08D200225F
:100E800021464FF0FF30FFF723FCAC60002032BD5D
:100E9000012032BD48000020600000201B4881B0C6
:100EA000016841F001010160026802F00102009254
:100EB0000099426842F080524260406800F08050E1
:100EC000009000981248016821F0E06141F0007143
:100ED000016001B0704700680E49884200D0704739
:100EE00080B50D48026842F02002026000220068CE
:100EF00000F020000090002100983720FFF7E8FB69
:100F0000BDE802403720FFF700BC00001810024087
:100F100004000140001400401C10024000B500BF56
:100F2000130096469446103928BFA0E80C50FAD812
:100F30005FEA417C28BF0CC048BF40F8042BC907BA
:100F400028BF20F8022B48BF00F8012B00BD7047D6
:100F500070477047704770477047704709281CD822
:100F6000DFE800F005080A0C0E101214161800BF76
:100F700095A010E095A00EE095A00CE095A00AE0E9
:100F800095A008E095A006E095A004E095A002E0F9
:100F900095A000E095A0FFF7E9BE70477047FEE717
:100FA000FEE7FEE7FEE770477047704700F022B9A2
:100FB0007E48016842688368491C3C29A2BF002121
:100FC000521C3C2A04DB00225B1C182BA8BF002308
:100FD00083604260016070470120FFF738BB022048
:100FE000FFF735BB2DE9F84F714F01213846FFF768
:100FF00024FB0A2500280FF2F8186C4E3CD1D6F8D5
:1010000008A07468D6F80090082100F081F89AFBD7
:10101000F5FB5846FFF7A2FF092100F079F805FB20
:101020001BAA5046FFF79AFF0A2100F071F800F062
:101030006CF80B2100F06CF894FBF5FA5046FFF7C2
:101040008DFF0C2100F064F805FB1A4400F058F8FD
:101050000D2100F05DF800F058F80E2100F058F86E
:1010600099FBF5F400F04CF80F2100F051F805FB66
:1010700014994846FFF772FF02213846FFF7DDFA60
:1010800000283BD1B46877683668082100F03AF848
:1010900094FBF5F94846FFF761FF092100F032F8AB
:1010A00005FB194400F02CF80A2100F02BF800F0A1
:1010B0002CF80B2100F026F897FBF5F400F020F84F
:1010C0000C2100F01FF805FB14773846FFF746FFA8
:1010D0000D2100F017F800F018F80E2100F012F8BA
:1010E00096FBF5F84046FFF739FF0F2100F00AF8AC
:1010F00005FB18652846BDE8F24F2FE7BDE8F18FE4
:1011000020462BE70220FFF7FBBD4046FFF72EBE2F
:101110000120FFF7F5BD000070B5082100F051F87F
:10112000DFF8884032A6A0680A2190FBF1F0FFF7B3
:1011300015FF092100F045F8A0680A210A2500F0F2
:101140003BF80A2100F03DF83046FFF70FFE0B2177
:1011500000F037F8606890FBF5F0FFF7FFFE0C2118
:1011600000F02FF860680A2100F026F80D2100F049
:1011700028F83046FFF7FAFD0E2100F022F820682B
:1011800090FBF5F0FFF7EAFE0F2100F01AF8206857
:101190000A2190FBF1F105FB11052846FFF7DEFE61
:1011A000BDE870400348FFF7EEBB0000540000208C
:1011B000000801400000002090FBF1F105FB110048
:1011C000CCE60020FFF79CBD30000000310000009D
:1011D0003200000033000000340000003500000041
:1011E0003600000037000000380000003900000021
:1011F0003A00000002494A68087882184A6070473D
:101200004800002010B50F4A0F49106840F0010057
:10121000106053680D480B4053601468044014601C
:10122000116821F4802111604FF41F01506820F4EF
:10123000FE00506091600020D0624FF00061044ACF
:10124000116010BD001002400000FFF8FFFFF6FE25
:1012500008ED00E030B5016884684218416802EB8F
:101260005103C9070BD54C4409E012F9011B12F8D0
:10127000015B002904F8015B05D5491CF9D19A42AC
:10128000F3D10C3030BD491EF1D5F8E710B5074950
:1012900079441831064C7C44163404E00A68081D71
:1012A000114488470146A142F8D110BD0800000052
:1012B00014000000A1FFFFFF000100004400000037
:1012C0000000002000F00DF8002801D0FFF7DEFF3D
:1012D000AFF300800020AFF30080FEF75BFF00F06B
:1012E00002F80120704700F001B8000007463846B8
:1012F00000F002F8FBE7000080B5AFF30080024A7F
:1013000011001820ABBEFBE7260002000148804711
:1013100001480047051200081D130008AFF30080C4
:10132000AFF30080FFF7CEFFFFF7FEBFFFF7FEBF72
:10133000FFF7FEBFFFF7FEBFFFF7FEBFFFF7FEBFE1
:10134000FFF7FEBFFFF7FEBFFFF7FEBFFFF7FEBFD1
:10135000FFF7FEBFFFF7FEBFFFF7FEBFFFF7FEBFC1
:10136000FFF7FEBFFFF7FEBFFFF7FEBFFFF7FEBFB1
:10137000FFF7FEBFFFF7FEBFFFF7FEBFFFF7FEBFA1
:10138000FFF7FEBFFFF7FEBFFFF7FEBFFFF7FEBF91
:10139000FFF7FEBFFFF7FEBFFFF7FEBFFFF7FEBF81
:1013A000FFF7FEBFFFF7FEBFFFF7FEBFFFF7FEBF71
:1013B000FFF7FEBFFFF7FEBFC000080E0E041F04BC
:1013C0001A010001F9000010FD000037FD00002C9B
:0A13D000FD000008FC0002366E016B
:040000050800131DBF
:00000001FF
